{
  "_format": "hh-sol-artifact-1",
  "contractName": "FinRizzCredits",
  "sourceName": "contracts/FinRizzCredits.sol",
  "abi": [
    {
      "inputs": [],
      "stateMutability": "nonpayable",
      "type": "constructor"
    },
    {
      "anonymous": false,
      "inputs": [
        {
          "indexed": true,
          "internalType": "uint256",
          "name": "telegramUserId",
          "type": "uint256"
        },
        {
          "indexed": false,
          "internalType": "uint256",
          "name": "credits",
          "type": "uint256"
        }
      ],
      "name": "CreditsConsumed",
      "type": "event"
    },
    {
      "anonymous": false,
      "inputs": [
        {
          "indexed": true,
          "internalType": "address",
          "name": "buyer",
          "type": "address"
        },
        {
          "indexed": false,
          "internalType": "uint256",
          "name": "telegramUserId",
          "type": "uint256"
        },
        {
          "indexed": false,
          "internalType": "uint256",
          "name": "credits",
          "type": "uint256"
        },
        {
          "indexed": false,
          "internalType": "uint256",
          "name": "amount",
          "type": "uint256"
        }
      ],
      "name": "CreditsPurchased",
      "type": "event"
    },
    {
      "anonymous": false,
      "inputs": [
        {
          "indexed": true,
          "internalType": "address",
          "name": "previousOwner",
          "type": "address"
        },
        {
          "indexed": true,
          "internalType": "address",
          "name": "newOwner",
          "type": "address"
        }
      ],
      "name": "OwnershipTransferred",
      "type": "event"
    },
    {
      "anonymous": false,
      "inputs": [
        {
          "indexed": false,
          "internalType": "uint256",
          "name": "creditsAmount",
          "type": "uint256"
        },
        {
          "indexed": false,
          "internalType": "uint256",
          "name": "newPrice",
          "type": "uint256"
        }
      ],
      "name": "PriceUpdated",
      "type": "event"
    },
    {
      "anonymous": false,
      "inputs": [
        {
          "indexed": true,
          "internalType": "address",
          "name": "owner",
          "type": "address"
        },
        {
          "indexed": false,
          "internalType": "uint256",
          "name": "amount",
          "type": "uint256"
        }
      ],
      "name": "WithdrawalMade",
      "type": "event"
    },
    {
      "inputs": [
        {
          "internalType": "uint256",
          "name": "credits",
          "type": "uint256"
        },
        {
          "internalType": "uint256",
          "name": "priceInWei",
          "type": "uint256"
        }
      ],
      "name": "addCreditPackage",
      "outputs": [],
      "stateMutability": "nonpayable",
      "type": "function"
    },
    {
      "inputs": [
        {
          "internalType": "uint256",
          "name": "",
          "type": "uint256"
        }
      ],
      "name": "availablePackages",
      "outputs": [
        {
          "internalType": "uint256",
          "name": "",
          "type": "uint256"
        }
      ],
      "stateMutability": "view",
      "type": "function"
    },
    {
      "inputs": [
        {
          "internalType": "uint256",
          "name": "telegramUserId",
          "type": "uint256"
        },
        {
          "internalType": "uint256",
          "name": "creditsToConsume",
          "type": "uint256"
        }
      ],
      "name": "consumeCredits",
      "outputs": [],
      "stateMutability": "nonpayable",
      "type": "function"
    },
    {
      "inputs": [
        {
          "internalType": "uint256",
          "name": "",
          "type": "uint256"
        }
      ],
      "name": "creditPackages",
      "outputs": [
        {
          "internalType": "uint256",
          "name": "credits",
          "type": "uint256"
        },
        {
          "internalType": "uint256",
          "name": "priceInWei",
          "type": "uint256"
        },
        {
          "internalType": "bool",
          "name": "active",
          "type": "bool"
        }
      ],
      "stateMutability": "view",
      "type": "function"
    },
    {
      "inputs": [
        {
          "internalType": "uint256",
          "name": "",
          "type": "uint256"
        }
      ],
      "name": "creditPrices",
      "outputs": [
        {
          "internalType": "uint256",
          "name": "",
          "type": "uint256"
        }
      ],
      "stateMutability": "view",
      "type": "function"
    },
    {
      "inputs": [
        {
          "internalType": "uint256",
          "name": "credits",
          "type": "uint256"
        }
      ],
      "name": "deactivateCreditPackage",
      "outputs": [],
      "stateMutability": "nonpayable",
      "type": "function"
    },
    {
      "inputs": [],
      "name": "emergencyWithdraw",
      "outputs": [],
      "stateMutability": "nonpayable",
      "type": "function"
    },
    {
      "inputs": [],
      "name": "getAvailablePackages",
      "outputs": [
        {
          "internalType": "uint256[]",
          "name": "",
          "type": "uint256[]"
        },
        {
          "internalType": "uint256[]",
          "name": "",
          "type": "uint256[]"
        }
      ],
      "stateMutability": "view",
      "type": "function"
    },
    {
      "inputs": [],
      "name": "getContractStats",
      "outputs": [
        {
          "internalType": "uint256",
          "name": "_totalCreditsIssued",
          "type": "uint256"
        },
        {
          "internalType": "uint256",
          "name": "_totalRevenue",
          "type": "uint256"
        },
        {
          "internalType": "uint256",
          "name": "_contractBalance",
          "type": "uint256"
        },
        {
          "internalType": "uint256",
          "name": "_totalPackages",
          "type": "uint256"
        }
      ],
      "stateMutability": "view",
      "type": "function"
    },
    {
      "inputs": [
        {
          "internalType": "uint256",
          "name": "telegramUserId",
          "type": "uint256"
        }
      ],
      "name": "getCreditBalance",
      "outputs": [
        {
          "internalType": "uint256",
          "name": "",
          "type": "uint256"
        }
      ],
      "stateMutability": "view",
      "type": "function"
    },
    {
      "inputs": [],
      "name": "owner",
      "outputs": [
        {
          "internalType": "address",
          "name": "",
          "type": "address"
        }
      ],
      "stateMutability": "view",
      "type": "function"
    },
    {
      "inputs": [
        {
          "internalType": "uint256",
          "name": "telegramUserId",
          "type": "uint256"
        },
        {
          "internalType": "uint256",
          "name": "creditsAmount",
          "type": "uint256"
        }
      ],
      "name": "purchaseCredits",
      "outputs": [],
      "stateMutability": "payable",
      "type": "function"
    },
    {
      "inputs": [],
      "name": "renounceOwnership",
      "outputs": [],
      "stateMutability": "nonpayable",
      "type": "function"
    },
    {
      "inputs": [],
      "name": "totalCreditsIssued",
      "outputs": [
        {
          "internalType": "uint256",
          "name": "",
          "type": "uint256"
        }
      ],
      "stateMutability": "view",
      "type": "function"
    },
    {
      "inputs": [],
      "name": "totalRevenue",
      "outputs": [
        {
          "internalType": "uint256",
          "name": "",
          "type": "uint256"
        }
      ],
      "stateMutability": "view",
      "type": "function"
    },
    {
      "inputs": [
        {
          "internalType": "address",
          "name": "newOwner",
          "type": "address"
        }
      ],
      "name": "transferOwnership",
      "outputs": [],
      "stateMutability": "nonpayable",
      "type": "function"
    },
    {
      "inputs": [
        {
          "internalType": "uint256",
          "name": "credits",
          "type": "uint256"
        },
        {
          "internalType": "uint256",
          "name": "newPriceInWei",
          "type": "uint256"
        }
      ],
      "name": "updateCreditPackagePrice",
      "outputs": [],
      "stateMutability": "nonpayable",
      "type": "function"
    },
    {
      "inputs": [
        {
          "internalType": "uint256",
          "name": "",
          "type": "uint256"
        }
      ],
      "name": "userCredits",
      "outputs": [
        {
          "internalType": "uint256",
          "name": "",
          "type": "uint256"
        }
      ],
      "stateMutability": "view",
      "type": "function"
    },
    {
      "inputs": [],
      "name": "withdraw",
      "outputs": [],
      "stateMutability": "nonpayable",
      "type": "function"
    },
    {
      "stateMutability": "payable",
      "type": "receive"
    }
  ],
  "bytecode": "0x60806040523480156200001157600080fd5b506200001d336200006e565b600180556200002c336200006e565b62000040600a66038d7ea4c68000620000be565b620000546032660ffcb9e57d4000620000be565b620000686064661c6bf526340000620000be565b62000239565b600080546001600160a01b038381166001600160a01b0319831681178455604051919092169283917f8be0079c531659141344cd1fd0a4f28419497f9722a3daafe3b4186f6b6457e09190a35050565b60008211620001145760405162461bcd60e51b815260206004820152601e60248201527f43726564697473206d7573742062652067726561746572207468616e2030000060448201526064015b60405180910390fd5b60008111620001665760405162461bcd60e51b815260206004820152601c60248201527f5072696365206d7573742062652067726561746572207468616e20300000000060448201526064016200010b565b60008281526006602052604090206002015460ff16620001b657600780546001810182556000919091527fa66cc928b5edb82af9bd49922954155ab7b0942694bea4ce44661d9a8736c688018290555b604080516060810182528381526020808201848152600183850181815260008881526006855286902094518555915190840155516002909201805460ff19169215159290921790915581518481529081018390527f945c1c4e99aa89f648fbfe3df471b916f719e16d960fcec0737d4d56bd696838910160405180910390a15050565b6110fa80620002496000396000f3fe6080604052600436106101185760003560e01c806384034469116100a0578063db2e21bc11610064578063db2e21bc1461036e578063dfe6b5d614610383578063e12248dd146103bb578063ef38b1ab146103e8578063f2fde38b1461040857600080fd5b8063840344691461029e5780638da5cb5b146102b1578063bf2d9e0b146102d9578063c61e5e02146102ef578063d124d1bc1461031257600080fd5b80633ccfd60b116100e75780633ccfd60b146102075780636c08ff241461021c578063715018a61461023c57806377b592921461025157806381cad74f1461027e57600080fd5b80631c59b0f91461016f5780632008d7a0146101915780632caa55a0146101ba57806338bd29a3146101da57600080fd5b3661016a5760405162461bcd60e51b815260206004820152601c60248201527f557365207075726368617365437265646974732066756e6374696f6e0000000060448201526064015b60405180910390fd5b600080fd5b34801561017b57600080fd5b5061018f61018a366004610ef7565b610428565b005b34801561019d57600080fd5b506101a760045481565b6040519081526020015b60405180910390f35b3480156101c657600080fd5b5061018f6101d5366004610ef7565b61052d565b3480156101e657600080fd5b506101a76101f5366004610f19565b60009081526002602052604090205490565b34801561021357600080fd5b5061018f610651565b34801561022857600080fd5b5061018f610237366004610ef7565b61073a565b34801561024857600080fd5b5061018f610750565b34801561025d57600080fd5b506101a761026c366004610f19565b60026020526000908152604090205481565b34801561028a57600080fd5b5061018f610299366004610f19565b610762565b61018f6102ac366004610ef7565b610893565b3480156102bd57600080fd5b506000546040516001600160a01b0390911681526020016101b1565b3480156102e557600080fd5b506101a760055481565b3480156102fb57600080fd5b50610304610a74565b6040516101b1929190610f6d565b34801561031e57600080fd5b5061035161032d366004610f19565b60066020526000908152604090208054600182015460029092015490919060ff1683565b6040805193845260208401929092521515908201526060016101b1565b34801561037a57600080fd5b5061018f610bad565b34801561038f57600080fd5b5060045460055460075447906040805194855260208501939093529183015260608201526080016101b1565b3480156103c757600080fd5b506101a76103d6366004610f19565b60036020526000908152604090205481565b3480156103f457600080fd5b506101a7610403366004610f19565b610bf2565b34801561041457600080fd5b5061018f610423366004610f9b565b610c13565b610430610c89565b60008281526006602052604090206002015460ff1661048a5760405162461bcd60e51b8152602060048201526016602482015275141858dad859d948191bd95cc81b9bdd08195e1a5cdd60521b6044820152606401610161565b600081116104da5760405162461bcd60e51b815260206004820152601c60248201527f5072696365206d7573742062652067726561746572207468616e2030000000006044820152606401610161565b60008281526006602090815260409182902060010183905581518481529081018390527f945c1c4e99aa89f648fbfe3df471b916f719e16d960fcec0737d4d56bd69683891015b60405180910390a15050565b610535610c89565b600082116105805760405162461bcd60e51b8152602060048201526018602482015277125b9d985b1a590815195b1959dc985b481d5cd95c88125160421b6044820152606401610161565b600081116105a05760405162461bcd60e51b815260040161016190610fcb565b6000828152600260205260409020548111156105f55760405162461bcd60e51b8152602060048201526014602482015273496e73756666696369656e74206372656469747360601b6044820152606401610161565b60008281526002602052604081208054839290610613908490611026565b909155505060405181815282907fc0bc57e239190bf3412684dd1a50da66e8881e5a2eac8ae6045362599124545a9060200160405180910390a25050565b610659610c89565b610661610ce3565b47806106a65760405162461bcd60e51b81526020600482015260146024820152734e6f2066756e647320746f20776974686472617760601b6044820152606401610161565b600080546040516001600160a01b039091169183156108fc02918491818181858888f193505050501580156106df573d6000803e3d6000fd5b506000546001600160a01b03166001600160a01b03167fbc158bb64f05d6383aea69bbb0b20c1bbf4b7a18f63359c5649b7c39e29d38848260405161072691815260200190565b60405180910390a25061073860018055565b565b610742610c89565b61074c8282610d3c565b5050565b610758610c89565b6107386000610ea7565b61076a610c89565b60008181526006602052604090206002015460ff166107c45760405162461bcd60e51b8152602060048201526016602482015275141858dad859d948191bd95cc81b9bdd08195e1a5cdd60521b6044820152606401610161565b6000818152600660205260408120600201805460ff191690555b60075481101561074c5781600782815481106107fc576107fc61103f565b906000526020600020015403610881576007805461081c90600190611026565b8154811061082c5761082c61103f565b90600052602060002001546007828154811061084a5761084a61103f565b600091825260209091200155600780548061086757610867611055565b600190038181906000526020600020016000905590555050565b8061088b8161106b565b9150506107de565b61089b610ce3565b600082116108e65760405162461bcd60e51b8152602060048201526018602482015277125b9d985b1a590815195b1959dc985b481d5cd95c88125160421b6044820152606401610161565b600081116109065760405162461bcd60e51b815260040161016190610fcb565b60008181526006602052604081206002015460ff1615610938575060008181526006602052604090206001015461094b565b61094882655af3107a4000611084565b90505b803410156109925760405162461bcd60e51b8152602060048201526014602482015273125b9cdd59999a58da595b9d081c185e5b595b9d60621b6044820152606401610161565b600083815260026020526040812080548492906109b090849061109b565b9250508190555081600460008282546109c9919061109b565b9250508190555034600560008282546109e2919061109b565b909155505034811015610a2757336108fc6109fd8334611026565b6040518115909202916000818181858888f19350505050158015610a25573d6000803e3d6000fd5b505b604080518481526020810184905290810182905233907f7852f393fd6a99c61648e39af92ae0e784b77281fc2af871edce1b51304ecd7c9060600160405180910390a25061074c60018055565b606080600060078054905067ffffffffffffffff811115610a9757610a976110ae565b604051908082528060200260200182016040528015610ac0578160200160208202803683370190505b5060075490915060009067ffffffffffffffff811115610ae257610ae26110ae565b604051908082528060200260200182016040528015610b0b578160200160208202803683370190505b50905060005b600754811015610ba357600060078281548110610b3057610b3061103f565b9060005260206000200154905080848381518110610b5057610b5061103f565b6020026020010181815250506006600082815260200190815260200160002060010154838381518110610b8557610b8561103f565b60209081029190910101525080610b9b8161106b565b915050610b11565b5090939092509050565b610bb5610c89565b600080546040516001600160a01b03909116914780156108fc02929091818181858888f19350505050158015610bef573d6000803e3d6000fd5b50565b60078181548110610c0257600080fd5b600091825260209091200154905081565b610c1b610c89565b6001600160a01b038116610c805760405162461bcd60e51b815260206004820152602660248201527f4f776e61626c653a206e6577206f776e657220697320746865207a65726f206160448201526564647265737360d01b6064820152608401610161565b610bef81610ea7565b6000546001600160a01b031633146107385760405162461bcd60e51b815260206004820181905260248201527f4f776e61626c653a2063616c6c6572206973206e6f7420746865206f776e65726044820152606401610161565b600260015403610d355760405162461bcd60e51b815260206004820152601f60248201527f5265656e7472616e637947756172643a207265656e7472616e742063616c6c006044820152606401610161565b6002600155565b60008211610d8c5760405162461bcd60e51b815260206004820152601e60248201527f43726564697473206d7573742062652067726561746572207468616e203000006044820152606401610161565b60008111610ddc5760405162461bcd60e51b815260206004820152601c60248201527f5072696365206d7573742062652067726561746572207468616e2030000000006044820152606401610161565b60008281526006602052604090206002015460ff16610e2b57600780546001810182556000919091527fa66cc928b5edb82af9bd49922954155ab7b0942694bea4ce44661d9a8736c688018290555b604080516060810182528381526020808201848152600183850181815260008881526006855286902094518555915190840155516002909201805460ff19169215159290921790915581518481529081018390527f945c1c4e99aa89f648fbfe3df471b916f719e16d960fcec0737d4d56bd6968389101610521565b600080546001600160a01b038381166001600160a01b0319831681178455604051919092169283917f8be0079c531659141344cd1fd0a4f28419497f9722a3daafe3b4186f6b6457e09190a35050565b60008060408385031215610f0a57600080fd5b50508035926020909101359150565b600060208284031215610f2b57600080fd5b5035919050565b600081518084526020808501945080840160005b83811015610f6257815187529582019590820190600101610f46565b509495945050505050565b604081526000610f806040830185610f32565b8281036020840152610f928185610f32565b95945050505050565b600060208284031215610fad57600080fd5b81356001600160a01b0381168114610fc457600080fd5b9392505050565b60208082526025908201527f4372656469747320616d6f756e74206d75737420626520677265617465722074604082015264068616e20360dc1b606082015260800190565b634e487b7160e01b600052601160045260246000fd5b8181038181111561103957611039611010565b92915050565b634e487b7160e01b600052603260045260246000fd5b634e487b7160e01b600052603160045260246000fd5b60006001820161107d5761107d611010565b5060010190565b808202811582820484141761103957611039611010565b8082018082111561103957611039611010565b634e487b7160e01b600052604160045260246000fdfea264697066735822122084ad684b0635924f5ee9dee7b5c27e15d77b298c3e9db3052f1b0d6a2dd7b70864736f6c63430008130033",
  "linkReferences": {},
  "deployedLinkReferences": {}
}